:020000040800F2
:1000000058BC00203103000835750008D35F000894
:100010005D6F000839190008E98C00080000000035
:100020000000000000000000000000007102000855
:10003000193D000800000000CD02000841850008BD
:100040004B0300084B0300084B0300084B03000858
:100050004B0300084B0300084B0300084B03000848
:100060004B0300084B0300084B0300084B03000838
:100070004B0300084B0300084B0300084B03000828
:100080004B0300084B0300084B0300084B03000818
:100090003D1900084B0300084B030008533D0008BE
:1000A0004B0300084B0300084B0300084B030008F8
:1000B000158600084B0300084B0300084B0300089B
:1000C0004B0300084B0300084B0300084B030008D8
:1000D0004B0300085D8B00084B0300084B0300082E
:1000E0004B0300084B0300084B0300084B030008B8
:1000F0004B0300084B0300084B0300084B030008A8
:100100004B0300084B0300084B0300084B03000897
:100110004B0300084B0300084B0300084B03000887
:100120004B0300084B0300086D3A00084B0300081E
:100130004B0300084B0300084B0300084B03000867
:100140004B030008511A00084B0300084B0300083A
:10015000793A0008853A0008913A0008698B00084E
:100160004B0300084B0300084B0300084B03000837
:100170004B0300084B0300084B030008000000007D
:100180004B0300084B03000800F002F800F060F891
:100190000AA090E8000C82448344AAF10107DA45E2
:1001A00001D100F055F8AFF2090EBAE80F0013F0D4
:1001B000010F18BFFB1A43F001031847B8CF000026
:1001C000D8CF00000A444FF0000C10F8013B13F0A8
:1001D000070408BF10F8014B1D1108BF10F8015BA0
:1001E000641E05D010F8016B641E01F8016BF9D193
:1001F00013F0080F1EBF10F8014BAD1C0C1B09D1EA
:100200006D1E58BF01F801CBFAD505E014F8016B5B
:1002100001F8016B6D1EF9D59142D6D370470000ED
:100220000023002400250026103A28BF78C1FBD8FF
:10023000520728BF30C148BF0B6070471FB50BF095
:10024000BFFF9DE8030000F02DFF1FBD10B510BDDE
:1002500000F0D2FF1146FFF7F1FF0AF043F900F07A
:10026000F0FF03B4FFF7F2FF03BC01F027F8000032
:100270002C4B19680868B0E8F04F80F30988BFF389
:100280006F8F4FF0000080F311887047000000006E
:1002900008480068006880F308884FF0000080F389
:1002A000148862B661B6BFF34F8FBFF36F8F00DF64
:1002B00000BF00BF08ED00E0DFF80C00016841F46A
:1002C00070010160704700BF88ED00E0EFF3098026
:1002D000BFF36F8F134B1A681EF0100F08BF20ED8D
:1002E000108A20E9F04F106009B44FF0500080F3FD
:1002F0001188BFF34F8FBFF36F8F0AF095FD4FF05A
:10030000000080F3118809BC19680868B0E8F04F54
:100310001EF0100F08BFB0EC108A80F30988BFF3FD
:100320006F8F70478C0A0020EFF305807047000044
:100330000948804709480047FEE7FEE7FEE7FEE779
:10034000FEE7FEE7FEE7FEE7FEE7FEE704480549B5
:10035000054A064B70470000058600088901000821
:10036000587C002058BC0020589C0020589C00203D
:100370009FED1A1AF5EE000A40EE010ABDEEE00A02
:10038000F5EEC00A10EE100AF1EE10FA38BF401E6A
:1003900000EE100A1349F7EE001AB8EEC00A30EE6C
:1003A000C00ADFED0F0A20EE200AFCEEC00A10EEB4
:1003B000900AC0F3080000EE900A01EB8000F8EE0E
:1003C000600A90ED011A70EE600A90ED000A71EE7D
:1003D000E01A21EE800A00EE810A704783F9223E7E
:1003E00000000044F0C70008B5EEC00AF1EE10FAB4
:1003F00007D2DFED1E0AB4EEE00AF1EE10FAA8BF54
:100400007047DFED1B0AB5EEC00A60EE200ABDEEB4
:10041000E01A11EE100AF1EE10FA38BF401E00EE9D
:10042000100A1549F7EE001AB8EEC00A30EEC00AFD
:10043000DFED100A60EE200ABCEEE00A10EE100AB2
:10044000C0F3080000EE100A01EB8000B8EE400A8D
:1004500090ED011A70EEC00A90ED000A71EEE01AFC
:1004600021EE800A00EE810A70470000CD024CB4F4
:1004700083F9223E00000044F0C7000870B40588EC
:100480000E884468D1F804C05368B54208D140884A
:100490004988884201BF11888D425188884203D023
:1004A00070BC6FF00200704705FB00F1880827D090
:1004B00094ED001ADCED000A94ED010ADCED011A5E
:1004C00031EE201AD4ED020A70EE211A9CED020AD8
:1004D00083ED001AC3ED011A94ED031ADCED031A43
:1004E00030EE800A401E71EE210A83ED020A04F10B
:1004F0001004C3ED030A03F110030CF1100CD7D163
:1005000011F0030030D0B0F1004F30D200282BDDC5
:10051000211F1B1FACF1040210F0010F0AD091ED56
:10052000010AD2ED010A091D121D30EE200A83EDE9
:10053000010A1B1D400817D091ED010AD2ED010AF6
:10054000401E30EE200A83ED010A91ED020AD2ED41
:10055000020A01F1080102F1080230EE200A83EDDF
:10056000020A03F10803E7D170BC00207047B4EC25
:10057000010A401EFCEC010A30EE200AA3EC010A3D
:10058000F5D1F1E701804280436070472DE9F34FD8
:1005900084B0049840680090486801900498B0F8CE
:1005A00000E04588DFEDFE0A00200290B0EE600A10
:1005B000AE4506D108884988884204BF7146864501
:1005C00004D06FF0020006B0BDE8F08F01985FEA3A
:1005D000010C18BFB7EE001A3DD000BFBEEB0C01F6
:1005E00017D0B1F1004F80F01F82002911DD021FEA
:1005F00011F0010F1CBFC2ED010A121D4B1006D0F5
:10060000C2ED010AC2ED020A08325B1EF8D100EB0E
:100610008100BCF10102A0EC011A19D0B2F1004F27
:1006200080F00882002A13DD031F12F0010F1CBFA7
:10063000C3ED010A1B1D511008D000BFC3ED010A14
:10064000C3ED020A491E03F10803F7D100EB820053
:10065000BCF1010CC2D14FF000080395002D14BF6E
:10066000B0EE602A002000F0BF8100BF009908FBB7
:1006700005F001EB800B0199DBED002A01EB800016
:100680000346F0EE421AC64552D9AEEB0802ABEB78
:10069000850112F0010F17D001EB850191ED000AE1
:1006A000B5EEC00AF1EE10FA07DDB4EEE10AF1EEA4
:1006B00010FA09DDF0EE401A06E0B1EE400AF4EE61
:1006C000C01AF1EE10FAF5D3521031D001EB850CBF
:1006D0009CED000AB5EEC00AF1EE10FA05DDB4EEAD
:1006E000E10AF1EE10FA09DD06E0B1EE400AF4EE9F
:1006F000C01AF1EE10FA01D2F0EE401A01EBC5017A
:1007000091ED000AB5EEC00AF1EE10FA05DDB4EE87
:10071000E10AF1EE10FA09DD06E0B1EE400AF4EE6E
:10072000C01AF1EE10FA01D2F0EE401A521ECDD1ED
:10073000F5EEC01AF1EE10FA00F07381F5EEC02A62
:100740000126F1EE10FA0099D4BFB1EE620AB0EEC4
:10075000620AB4EE610AF1EE10FA1CBFAEEB0802B9
:10076000B2F1010C47D005FB08F201EB820292EDD9
:10077000001A00BFB0EE410A05FB06F4B5EEC00A50
:1007800000EB8404F1EE10FACCBFF0EE400AF1EE7B
:10079000400AF4EE610AF1EE10FA28D1B5EB080C2C
:1007A00011D0BCF1004F7DD2BCF1000F0BDD00BFBA
:1007B00092ED000AD1ED000ABCF1010CE2EC010A55
:1007C000A1EC010AF4D129000ED0B1F1004F6AD298
:1007D000002909DD94ED000AD0ED000A491EE4EC81
:1007E000010AA0EC010AF5D1012002900BE0761C71
:1007F000BCF1010CBED10298012804D0F5EEC02A4C
:10080000F1EE10FA7ED09BED000AB5EB08009A4697
:100810005946064622D0B0F1004F74D200281DDDA3
:10082000091F10F0010F06D0F0EE400A80EEA01A6A
:1008300081ED011A091D401010D000BFD1ED010A51
:10084000401E80EE801A81ED011A91ED021AC1EE70
:10085000000AC1ED020A01F10801EFD1280026D0FB
:10086000B0F1004F7ED2002821DDAAF1040110F082
:10087000010F06D0D1ED010A80EE801A81ED011A38
:10088000091D401013D000BFD1ED010A401E80EEBB
:10089000801A81ED011AD1ED020A80EE801A81EDF5
:1008A000021A01E0CBE0D6E001F10801ECD1DDE96C
:1008B00000124FF000095FEA0E0773D0C14504BF74
:1008C00001EB860102EB850274D091ED000ADC4653
:1008D0005046331E35D01C46B6F1004F7ED2002C58
:1008E0002FDD0B1FABF1040C16F0010F0FD0F0EE53
:1008F000400ADCED011AB0EE601A00EEE11A83ED59
:10090000011A01E08DE0B1E01B1D0CF1040C741024
:1009100015D000BFD3ED010A9CED011A40EE410A4B
:10092000C3ED010AD3ED020A9CED021A0CF1080C8A
:1009300040EE410AC3ED020A0833641EEAD101EB1E
:1009400086012B0036D0B3F1004F72D2002B31DD7F
:10095000A2F1040CAAF1040013F0010F0CD0DCED9D
:10096000010A00E08BE090ED011A001D40EE410A03
:10097000CCED010A0CF1040C5C1019D0DCED010A7D
:1009800090ED011A40EE410ACCED010ADCED020ABD
:1009900090ED021A083040EE410ACCED020A03E065
:1009A000000000000DE005E0641E0CF1080CE5D12C
:1009B00002EB830201EB88017F1E09F101097FF43C
:1009C0007DAF009808F10108001D00900398401EBB
:1009D00003907FF44BAE0299012900E058E004BF78
:1009E00006B0BDE8F08F00BFB5EEC00AF1EE10FA18
:1009F0007FF4E9AD04990EFB05F3002B4A684FF034
:100A000000010BD902EB810C9CED000AB5EEC00A87
:100A1000F1EE10FA02D1491C8B42F3D88B427FF4DD
:100A2000D2AD6FF00400CEE5E0EC010A491EFBD127
:100A3000EFE538E0E0EC010A521EFBD108E692ED4A
:100A4000000AD1ED000ABCF1010CE2EC010AA1ECB4
:100A5000010AF4D1B7E694ED000AD0ED000A491E70
:100A6000E4EC010AA0EC010AF5D1BDE6D1ED000AE3
:100A7000401E80EE801AA1EC011AF7D1EEE6D3ED0C
:100A8000000A401E80EE801AA3EC011AF7D10EE78F
:100A9000BCEC011AD1ED000A5B1E40EE410AE1EC0C
:100AA000010AF5D14DE7B0EC011AD2ED000A5B1E48
:100AB00040EE410AE2EC010AF5D17BE72DE9F04F67
:100AC00082B0466853680193058847884B880020A8
:100AD00000900888874201BFB2F800C0654552887F
:100AE00093421EBF6FF0020002B0BDE8F08F9FED91
:100AF000412A4FEA970EC7F3400B00BFDDE9000221
:100B000002EB800A4A6898464FF00009B0EE420AAC
:100B1000B4465FEA0E0025D092ED001ADCED001A13
:100B200002EB8302DCED010A01EE810A92ED001A6C
:100B300002EB8302401ED2ED001A02EB830200EEAC
:100B4000810A9CED021ADCED030A00040CF1100C82
:100B5000000C01EE210A92ED001A02EB830200EE76
:100B6000810AD9D117F0030026D0ACF10404A2EB1E
:100B7000830210F0010F08D002EB8302D4ED010ACA
:100B800092ED001A241D00EE810A5FEA0B0013D0DB
:100B900002EB830CD4ED010A9CED001A02EBC302B8
:100BA000401E00EE810AD4ED020A92ED001A04F113
:100BB000080400EE810AEBD109F10100AAEC010A58
:100BC0001FFA80F9486800EB8902A8F101001FFABA
:100BD00080F8B8F1000F99D1009806EB8706184409
:100BE00080B20090681E05042D0C87D102B0002051
:100BF000BDE8F08F0000000070B405880E884468DE
:100C0000D1F804C05368B54208D140884988884269
:100C100001BF11888D425188884203D070BC6FF0AB
:100C20000200704705FB00F1880827D094ED001AF8
:100C3000DCED000A94ED010ADCED011A31EE601AD8
:100C4000D4ED020A70EE611A9CED020A83ED001ADF
:100C5000C3ED011A94ED031ADCED031A30EEC00A5D
:100C6000401E71EE610A83ED020A04F11004C3ED27
:100C7000030A03F110030CF1100CD7D111F003009B
:100C800030D0B0F1004F30D200282BDD211F1B1FC8
:100C9000ACF1040210F0010F0AD091ED010AD2ED7F
:100CA000010A091D121D30EE600A83ED010A1B1DA9
:100CB000400817D091ED010AD2ED010A401E30EE36
:100CC000600A83ED010A91ED020AD2ED020A01F1F8
:100CD000080102F1080230EE600A83ED020A03F116
:100CE0000803E7D170BC00207047B4EC010A401E35
:100CF000FCEC010A30EE600AA3EC010AF5D1F1E741
:100D00002DE9F04F02884768B0F802804888D1F892
:100D1000049082B04FF0000A1646824207BF09884D
:100D200088456FF0020002B018BFBDE8F08F4FEAAF
:100D3000980B02EB42000190C8F34000CDF8000090
:100D400009EB8A01BBF1000F33D0019801EB820C53
:100D500001EB80043B46E64601EBC2054FEA0B007F
:100D600093ED000A401E81ED000A93ED010A01EBAC
:100D700002118CED000A93ED020A0CEB021C85EDCA
:100D8000000A93ED030A05EB021584ED000A04EB5B
:100D9000021403F11003E3D10EEB820000EB82009A
:100DA00000EB8201ABF10100504307EB0B1701EBA5
:100DB000001118F0030C21D03B1FA1EB82011CF0A5
:100DC000010F06D093ED010A01EB82011B1D81ED9D
:100DD000000A009880B100BF93ED010A01EB820484
:100DE00001EBC20184ED000A93ED020A401E81ED81
:100DF000000A03F10803EFD107EB8C070AF10100A9
:100E00001FFA80FA701E0604360C99D102B0002039
:100E1000BDE8F08F70B5064600F028F9056806F1C8
:100E20000B0020F00704B4429CBF002070BD2B468D
:100E30006A68BAB11068A04210D304F10801884270
:100E40003CBF5068586007D3516810194160116861
:100E5000091B016058601460101D70BD1346526874
:100E6000002AE7D12146284600F008F90028DED103
:100E700070BD53EA020C00F069802DE9F04B4FF091
:100E80000006002B1FBFB3FA83F503FA05F424FA1A
:100E900005F65E4012BF1643B2FA82F502FA05F477
:100EA000C5F120051EBF22FA05FC44EA0C042035DA
:100EB00056EA044C4FEA144418BF641C4FF0000873
:100EC0004FF00009904271EB030C39D3002919BF90
:100ED000B1FA81F701FA07F6B0FA80F700FA07F6DF
:100EE000C7F120071EBF20FA07FC46EA0C06203790
:100EF000B6FBF4FCA7EB0507103F07F01F0BCBF187
:100F000020060CFA0BFB2CFA06F644BFB34600266B
:100F1000202FA4BF5E464FF0000B5BEA060C08BF13
:100F20004FF0010B19EB0B09ABFB027C48EB0608F9
:100F3000C01B06FB02CC0BFB03CC71EB0C01C1E721
:100F40000B46024641464846BDE8F08B13B54FF0CC
:100F500000004FF00001AFF30080BDE81C40704777
:100F600010B5203AC0F00B80B1E81850203AA0E844
:100F70001850B1E81850A0E81850BFF4F5AF5FEA78
:100F8000027C24BFB1E81850A0E8185044BF18C92B
:100F900018C0BDE810405FEA827C24BF51F8043BD2
:100FA00040F8043B08BF7047D20728BF31F8023B26
:100FB00048BF11F8012B28BF20F8023B48BF00F8BA
:100FC000012B704702F0FF0343EA032242EA024288
:100FD00000F002B84FF000020429C0F0128010F0B7
:100FE000030C00F01B80CCF1040CBCF1020F18BF05
:100FF00000F8012BA8BF20F8022BA1EB0C0100F098
:101000000DB85FEAC17C24BF00F8012B00F8012B6A
:1010100048BF00F8012B70474FF0000200B513469F
:1010200094469646203922BFA0E80C50A0E80C5008
:10103000B1F12001BFF4F7AF090728BFA0E80C50B9
:1010400048BF0CC05DF804EB890028BF40F8042BB2
:1010500008BF704748BF20F8022B11F0804F18BF1F
:1010600000F8012B70477047704770470048704781
:10107000007C0020704770477047704738B50446C1
:101080000A4600206946AFF30080002808BF38BD3B
:1010900002460099204600F075F8012038BD012075
:1010A00000F0A2B8F8B5AFF30080054600200C466A
:1010B000102000BF0646A819A0420DD93246694645
:1010C0000020AFF30080070008BF00F08DF8009803
:1010D000A04218BF0546C419FFF7C8FF05600746C0
:1010E000F01D20F007004619284600F00AF8B44227
:1010F00008BFF8BDA21B31463868BDE8F84000F0D3
:1011000041B800210160C0E901107047102070470C
:1011100070B50446051FFFF7A9FF0068002C14BF37
:10112000446870BD002C18BFAC423CBF20466468C8
:10113000F8D301680A18AA4218BF456003D12A688B
:1011400005461144016028684119A1421CBF6C602A
:1011500070BD6168696021680844286070BD10B581
:1011600000F00CF8006810BD10B5044600F006F859
:10117000046010BD00487047F87B002000487047AD
:10118000F87B0020034640688C46002818BF884240
:101190003CBF03464068F8D318681844884207D01B
:1011A0000CF1030020F00700001D411A521A0146FD
:1011B000081D0A60FFF7ACBF1FB584B000200A9C71
:1011C00006AB04AA02A90094AFF3008018B1DDE9D0
:1011D000020108B010BD0348204000F040F8002094
:1011E0000146F6E70000207C10B500F03FF8BDE8AE
:1011F000104000F02FB870477546FFF7BBFFAE46B2
:1012000005006946534620F00700854618B020B512
:10121000FFF79CF8BDE820404FF000064FF00007B4
:101220004FF000084FF0000B21F00701AC46ACE88E
:10123000C009ACE8C009ACE8C009ACE8C0098D46FB
:10124000704710B50446AFF300802046BDE810405B
:10125000FFF707B8002801D000F030B8704710B58C
:1012600000F04CF8BDE81040FFF7F4BF10B50128BE
:1012700005D0002103A000F027F8012010BD09A12E
:10128000F8E7000053494752544D454D3A204F75F9
:1012900074206F662068656170206D656D6F72796E
:1012A000000000003A2048656170206D656D6F7226
:1012B0007920636F7272757074656400014918203B
:1012C000ABBEFEE72600020070B505460C460A20BC
:1012D00000E06D1C00F068F835B128780028F8D1DE
:1012E00002E0641C00F060F814B120780028F8D106
:1012F000BDE870400A2000F057B8000010B5022881
:1013000003D0410103D50DA112E0002010BD010161
:1013100001D50FA10CE0C10001D511A108E08100A9
:1013200001D512A104E0400001D513A100E0002185
:1013300015A0FFF7C9FF012010BD0000496E7661BE
:101340006C6964204F7065726174696F6E00000093
:10135000446976696465204279205A65726F00009D
:101360004F766572666C6F7700000000556E64659D
:1013700072666C6F77000000496E65786163742057
:10138000526573756C7400005349474650453A20C6
:1013900041726974686D657469632065786365700E
:1013A00074696F6E3A20000008B569468DF8000038
:1013B0000320ABBE08BD000001221021014803F04C
:1013C000A1BB00000000024000221021014803F0F0
:1013D00099BB0000000002402DE9F041FFF7F4FF47
:1013E000802000F0FFF9552000F0FCF9552000F0B6
:1013F000F9F9FFF7E1FF962002F09AFCFFF7E4FF0E
:10140000802000F0EFF9552000F0ECF9552000F0B5
:10141000E9F9FFF7D1FF962002F08AFCFFF7D4FF2D
:10142000B6217E2000F024FAFFF7C6FF502002F01C
:1014300074FCFFF7C9FF802000F0D4F9552000F0BC
:10144000D1F9552000F0CEF9FFF7B6FF962002F053
:101450006FFCFFF7B9FF802000F0C4F9552000F0C1
:10146000C1F9552000F0BEF90446FFF7A5FF96200C
:1014700002F05EFC1E2C02D0FF20BDE8F0810024AB
:10148000174FFFF7A1FF04EB4405EE19785D717863
:1014900000F0EEF9FFF790FF962002F049FCFFF70D
:1014A00093FF785D40F0800000F09CF9552000F03B
:1014B00099F9552000F096F90546FFF77DFF962033
:1014C00002F036FC7078A84204D004EB44003844A3
:1014D0008078D2E7641CE4B2062CD2D30020CCE79B
:1014E000D808002001221146014803F00BBB000080
:1014F0000004024000220121014803F003BB000068
:1015000000040240F8B500200090FFF7F3FF6946A1
:10151000002000F05BF9FFF7E5FF962002F008FCE1
:10152000FFF7E8FF6946002000F050F9FFF7DAFF07
:10153000962002F0FDFBFFF7DDFFB621142000F03E
:1015400097F9FFF7CFFF502002F0E7FBFFF7D2FF3C
:101550006946002000F03AF9FFF7C4FF962002F038
:10156000E7FBFFF7C7FF6946002000F02FF9FFF700
:10157000B9FF962002F0DCFB9DF800000F2801D097
:10158000FF20F8BD0024154FFFF7B4FF04EB44051E
:10159000EE19785D717800F06BF9FFF7A3FF9620E4
:1015A00002F0C6FBFFF7A6FF785D694600F00EF972
:1015B000FFF798FF962002F0BBFB70789DF80010B3
:1015C000884204D004EB440038448078F8BD641CA1
:1015D000E4B2062CD8D30020F8BD0000EA080020B1
:1015E0007CB50446002000900190FFF7EDFE9220AC
:1015F00000F0F8F806226946122000F0D5F8FFF74F
:10160000DBFE9DF800009DF8011040EA012000B2C9
:1016100020849DF802109DF8032041EA022109B2BE
:1016200061849DF804209DF8053042EA032212B23D
:10163000A28400EE100A454DF8EEC00A95ED000AAE
:1016400060EE800AC4ED010A00EE901AF8EEE00A9E
:1016500060EE800AC4ED020A00EE902AF8EEE00A7D
:1016600020EE800A84ED030AFFF7AEFEA22000F010
:10167000B9F802226946222000F096F8FFF79CFE96
:101680009DF800009DF80110C00040EA5110A085AF
:10169000B0F5806F02DBA0F50060A085B4F92C00E6
:1016A000B4EE001A00EE100AF8EEC00AB3EE070A14
:1016B00000EE810A84ED070AFFF71CFF0822694645
:1016C000002000F071F8FFF70DFF9DF800000F28D3
:1016D00014D19DF802009DF8031040EA0120E08437
:1016E0009DF804009DF8051040EA012020859DF832
:1016F00006009DF8071040EA01206085B4F9260035
:10170000D4ED0C0A00EE100AB8EEC01A95ED010AED
:1017100050EE010AC4ED040AB4F92800D4ED0D0A14
:1017200001EE100AB8EEC11A50EE010AC4ED050A26
:10173000B4F92A00D4ED0E0A01EE100AB8EEC11A6F
:1017400050EE010AC4ED060A7CBD0000D00800205E
:1017500070B50024FFF740FE40EA0405FFF7D2FE13
:1017600040EA0504022002F0D8FA002CF2D1BDE8CC
:101770007040014800F002B8941100209FED070A64
:1017800080ED0C0A9FED060A80ED0D0A9FED050A1B
:1017900080ED0E0A01210170704700005993703BE3
:1017A0009B5A5EBB03C8B83A70B50D46144640F06C
:1017B000800000F017F806E0552000F013F805F857
:1017C000010B641EE4B2002CF6D170BD10B50C46BE
:1017D00040F0800000F006F8552000F003F820707B
:1017E00010BD000001B582B0002001904FF47A7066
:1017F0000090012301AA02A9024803F019FE9DF8F6
:1018000004000EBD1818002010B5F0EE400A9FED40
:10181000130A134808F01EFD1148124A90ED0A0AF7
:1018200010EE101A914204DD9FED0F0A80ED0A0AB6
:1018300008E0B5EEC00AF1EE10FA03D29FED0B0AF4
:1018400080ED0A0A90ED0A0ABDE81040BCEEC00A1D
:1018500010EE100A80B204F0BDBB00000000204270
:10186000500F00200000FA440000FA44000000007D
:1018700010B50C46FFF7B6FF2046BDE81040FFF755
:10188000B1BF000030B595B028210BA8FFF7C4FB0D
:10189000012513950024119412950B940C940D942A
:1018A0000E9410940F9414940BA9164802F0F8FAB1
:1018B00008B102F051FA134802F04FFE022111481C
:1018C00002F062FA282101A8FFF7A6FB0995079408
:1018D000089501940294039404940E2006900595B3
:1018E0000A9001A9084802F0DBFA08B102F034FAC4
:1018F000054802F032FE1021034802F045FA15B007
:1019000030BD0000C8170020F017002008B5642083
:1019100000900448044B0168A3F16402091D07F01C
:1019200029F908BDFC1800203412002000210148CC
:1019300004F068B870180020FEE70000014802F0CB
:10194000BBBB0000C817002070B505460C462968CF
:10195000A1F5407002382FD0B1F5A17F58D0A1F584
:101960008070413854D0A1F5007006385DD0B1F5D3
:10197000817F20D13048217881706178C170E17811
:10198000A27841EA022100EE101AF8EE400A9FED1B
:101990002B0A80EE801A80ED011A6179227941EAE2
:1019A000022100EE901AF8EE600A80EE801A80EDB7
:1019B000021AE179017370BD20782149C0F38100DA
:1019C0008872207800F00300C8722078C0F30010FD
:1019D000887520781B4AC0F3411082F88000207877
:1019E000C00982F88100A078637840EA0320404271
:1019F000C880E07800B1012082F882006079088117
:101A00002079C874E079A27940EA0220888270BD0A
:101A10000D4A2146284605F059F821462846BDE8DA
:101A20007040094A243205F051B821462846BDE8E5
:101A30007040064A01F0C2BF000B002000007A444B
:101A40005A0A002074000020FC08002044090020ED
:101A5000014802F031BB0000F017002010B5084625
:101A60002DED028B0178254C01F00F019FED248AAA
:101A7000012918D0022926D0032931D004290FD1F9
:101A800004F1A80102F0ECF894ED310ADFED1D0A33
:101A900030EE200A84ED310A20EE080A84ED360A81
:101AA000BDEC028B10BD154902F0DAF894ED070A7F
:101AB000DFED150A30EE200A84ED070A20EE080A51
:101AC00084ED0C0AECE70D49383102F0C9F894EDC9
:101AD000150ADFED0E0A30EE600A84ED150ADFE725
:101AE0000649703102F0BCF894ED230AF6EE000AC4
:101AF00030EE600A84ED230AD2E700006C09002072
:101B0000DF2E6542C8616140DC0F69405C8FC23ED8
:101B1000354A0121354805F03BFD334A3348183238
:101B20000121A03005F034FD2F4A30483032012128
:101B3000503005F02DFD2C4D2D4E103D2D4C08F054
:101B400007FD686000F0DCF8607A10B1012803D06E
:101B50000BE005F07BFC08E094F8220048B194F813
:101B60006C0001283CD005F01DFB012008F0DBFCD7
:101B7000E5E7207A012808D00028F6D1B07A0228BB
:101B80000ED068B1687870B11BE0A07B012804D04A
:101B90000028EAD105F0E4F9E7E705F08BFBE4E77C
:101BA00005F0F2FBE1E7B08A00050AD594F883005E
:101BB00028B1002084F883000120687006E001202D
:101BC000F8E7B08A000501D40020687094F883001B
:101BD000012802D005F0D8FBC7E705F023FAC4E7D7
:101BE00005F0D2FBC1E7000010000020100B002020
:101BF0005A0A00207400002070B500200125274CEF
:101C00000026C0EBC00104EBC10293783BB15B1E20
:101C1000DBB29370642B07D204F8315004E014F85F
:101C20003110012900D19670401CC0B20428E8D3BD
:101C30002078012804D101F0FBFF0A2008F073FC92
:101C400094F83800012805D1022001F0F1FF1E2090
:101C500008F069FC94F87000012805D1032001F018
:101C6000E7FF0A2008F05FFC94F8A800012805D1DE
:101C7000042001F0DDFF0A2008F055FC217894F8DB
:101C8000380094F87020014494F8A8001044C14230
:101C9000034801D1457770BD467770BD6C090020BF
:101CA0007400002070B500200125134C002600EBC5
:101CB000C00114F8212012B1012A0CD00EE004EB6F
:101CC00081035A7852B1521ED2B25A70C82A05D234
:101CD00004F8215002E004EB81014E70401CC0B2B8
:101CE0000228E4D394F824002178C842034801D1A3
:101CF000057770BD067770BDFC08002074000020D9
:101D000010B5FFF7CFFFFFF777FF0648017F427F4F
:101D10001144022902D00021417210BD01214172FB
:101D200010BD0000740000202DE9F04104462DEDA7
:101D3000028BD4ED260A94ED290A8F4808F08AFA1E
:101D4000D4ED3F0A30EE200A84ED590A8A48D4EDDA
:101D5000960A94ED990A503008F07CFAD4EDAF0A57
:101D600030EE200A84EDC90A607810B1012805D050
:101D700008E09FED820A84ED120A03E09FED800ADD
:101D800084ED120A7F4F94ED120AD7ED070A30EE68
:101D9000600A84ED130A10EE101A7B4ADFED7B0A0D
:101DA000914204DD30EE600A84ED130A08E010EE83
:101DB000101A774A914203D930EE200A84ED130AB3
:101DC000A17B744D744E9FED758A012940D084ED3E
:101DD000578A84EDC78AD5ED030A9FED710A30EE6C
:101DE000800AFBEE040A60EE200AC4ED580AF3EE06
:101DF000040A20EE200A84EDC80A94F8080201289B
:101E000001D0B07818B184ED588A84ED578A94F8DF
:101E1000C803012801D0B07818B184EDC88A84EDD8
:101E2000C78A94ED4B0AD4EDBB0A9FED5E1A5E485B
:101E300070EE810A70EE600AB0EE480A08F00AFA05
:101E400084ED540A84EDC40ABDEC028BBDE8F08138
:101E500056490022C97CF9B10129BCD102287CD0A5
:101E600094F8820001285CD03272434894ED130A42
:101E7000F0EE480AA03008F0EDF9B7F9140000EED2
:101E8000900A4948F8EEE00AA03808F0E3F984ED3A
:101E9000570A84EDC70A9EE73272022816D03648E8
:101EA00094ED130AF0EE480AA03008F0D3F9B7F920
:101EB000140000EE900A3C48F8EEE00AA03808F062
:101EC000C9F984ED570A84EDC70A0DE095ED050ABE
:101ED0003548F1EE400A9FED360A503808F0BAF95D
:101EE00084ED570A84EDC70A3249D4F85C01324ABE
:101EF000B2EE040AFAEE040A884202DD84ED570AC3
:101F000003E0904201D9C4ED570AD4F81C0388427B
:101F100002DD84EDC70A5EE79042BCD9C4EDC70A72
:101F200059E7307A28B995ED010A84ED220A01209B
:101F300030721D48D5ED010A94ED220A503008F0A8
:101F400089F91948D5ED050AA03008F083F984ED28
:101F5000570A84EDC70A3EE7FFE795ED050A1248E8
:101F6000F1EE400A9FED150A503808F073F984ED40
:101F7000570A84EDC70A2EE7280C00200000F0C2A3
:101F80000000164344090020000034430000B4431D
:101F9000000034C3A80E00205800002000000000FC
:101FA0003333333F9A99993DB80D00205A0A0020E7
:101FB0000000C84300002041000020C10080094407
:101FC0002DE9F04104462DED028B01267B490025C9
:101FD000887D002817D0012803D07948C07B80076E
:101FE0000CD425722570A572E57225736573A573EF
:101FF000257465822575E5822576658394F822002F
:10200000704F68B189E0A570C87A032806D001280E
:1020100004D084F8225025722570EFE72672EDE790
:10202000207A012879D12078002876D1607A012899
:1020300073D1A07B10B101282AD06EE06248634BB7
:10204000C169994201DDA67200E0A572604A416D46
:10205000914201DAE67200E0E572D0F88C1091420C
:1020600001DA267300E02573D0F8C400984201DD40
:10207000667300E06573A07AE17A627B0844217B95
:1020800011440844042801D0A57346E0A67344E037
:10209000207C10B1012814D03FE097ED000A4D4993
:1020A000B0EEC00A10EE100A884236DA608A401C90
:1020B00080B26082C82830D984F8225026746582A4
:1020C0002BE0207E48BB25719FED430A84ED290A51
:1020D00084ED990A94ED3F0A9FED408AB0EE481ACC
:1020E000DFED3F8AF0EE680A08F07AF984ED3F0AE6
:1020F00094EDAF0AB0EE481AF0EE680A08F070F9F5
:1021000084EDAF0AD4ED3F0A364930EE800A10EE76
:10211000100A884201D1267626702078012825D120
:1021200097ED000AF7EE080A2F4930EE200AB0EECC
:10213000C00A10EE100A88420EDDE088401C80B212
:10214000E08094ED100AB0EEC00A10EE101AB1F162
:10215000804F01DD801CE080E088642806D984F887
:10216000226084F86C6025722570E58094F8220066
:1021700001280CD1E088401C80B2E080322801D9CF
:1021800084F86C50642802D984F82250E580207AC3
:1021900000280ED1207800280BD1A572E572257396
:1021A0006573A573257465822575E582257665833B
:1021B0002571BDEC028BBDE8F08100005A0A0020B9
:1021C00098120020A80E00206C090020F6283C4040
:1021D0009A99993E0000A040EC51383E9A99993E58
:1021E0000000B44200003443000050412DE9F05F8C
:1021F00004462DED028B94ED268AF0EE080AB0EE2F
:10220000480A07F0CDFBFE4DD5ED010A60EE208AAD
:10221000F0EE000AB0EE480A07F0C2FBD5ED020A64
:1022200040EE808A95ED030A40EE088A95ED040A97
:1022300038EE800A84ED5B0AF0EE080AB0EE480A38
:1022400007F0AEFB05F11806D6ED010A60EE208A14
:10225000F0EE000AB0EE480A07F0A2FBD6ED020A43
:1022600040EE808A96ED030A40EE088A96ED040A55
:1022700038EE800A84ED5C0AF0EE080AB0EE480AF7
:1022800007F08EFB05F13007D7ED010A60EE208ADA
:10229000F0EE000AB0EE480A07F082FBD7ED020A22
:1022A00040EE808A97ED030A40EE088A97ED040A13
:1022B00038EE800A84ED5D0AF0EE080AB0EE480AB6
:1022C00007F06EFB05F14808D8ED010A60EE208AA0
:1022D000F0EE000AB0EE480A07F062FBD8ED020A01
:1022E00040EE808A98ED030A40EE088A98ED040AD1
:1022F00038EE800A84ED5E0AF0EE080AB0EE480A75
:1023000007F04EFB05F16009D9ED010A60EE208A65
:10231000F0EE000AB0EE480A07F042FBD9ED020ADF
:1023200040EE808A99ED030A40EE088A99ED040A8E
:1023300038EE800A84ED5F0AF0EE080AB0EE480A33
:1023400007F02EFB05F1780ADAED010A60EE208A2B
:10235000F0EE000AB0EE480A07F022FBDAED020ABE
:1023600040EE808A9AED030A40EE088A9AED040A4C
:1023700038EE800A84ED600AF0EE080AB0EE480AF2
:1023800007F00EFB05F1900BDBED010A60EE208AF1
:10239000F0EE000AB0EE480A07F002FBDBED020A9D
:1023A00040EE808A9BED030A40EE088A9BED040A0A
:1023B00038EE800A84ED610AF0EE080AB0EE480AB1
:1023C00007F0EEFA05F1A800D0ED010A60EE208AD0
:1023D000F0EE000AB0EE480A07F0E2FA05F1A800B4
:1023E000D0ED020A40EE808A90ED030A40EE088AA2
:1023F00090ED040A38EE800A84ED620AF0EE080AD5
:10240000B0EE480A07F0CCFA05F1C000D0ED010AA1
:1024100060EE208AF0EE000AB0EE480A07F0C0FA3B
:1024200005F1C000D0ED020A40EE808A90ED030A6B
:1024300040EE088A90ED040A38EE800A84ED630AC3
:10244000F0EE080AB0EE480A07F0AAFA05F1D80043
:10245000D0ED010A60EE208AF0EE000AB0EE480AE4
:1024600007F09EFA05F1D800D0ED020A40EE808A0E
:1024700090ED030A40EE088A90ED040A38EE800AD7
:1024800084ED640AF0EE080AB0EE480A07F088FA14
:1024900005F1F000D0ED010A60EE208AF0EE000AAE
:1024A000B0EE480A07F07CFA05F1F000D0ED020A20
:1024B00040EE808A90ED030A40EE088A90ED040A0F
:1024C00038EE800A84ED650AF0EE080AB0EE480A9C
:1024D00007F066FA05F58470D0ED010A60EE208AF7
:1024E000F0EE000AB0EE480A07F05AFA05F58470DB
:1024F000D0ED020A40EE808A90ED030A40EE088A91
:1025000090ED040A38EE800A84ED660A94ED968A0E
:10251000F0EE080AB0EE480A07F042FAD5ED010ADB
:1025200060EE208AF0EE000AB0EE480A07F038FAB2
:10253000D5ED020A40EE808A95ED030A40EE088A46
:1025400095ED040A38EE800A84EDCB0AF0EE080A15
:10255000B0EE480A07F024FAD6ED010A60EE208AB0
:10256000F0EE000AB0EE480A07F01AFAD6ED020AB9
:1025700040EE808A96ED030A40EE088A96ED040A42
:1025800038EE800A84EDCC0AF0EE080AB0EE480A74
:1025900007F006FAD7ED010A60EE208AF0EE000A95
:1025A000B0EE480A07F0FCF9D7ED020A40EE808A47
:1025B00097ED030A40EE088A97ED040A38EE800A88
:1025C00084EDCD0AF0EE080AB0EE480A07F0E8F90B
:1025D000D8ED010A60EE208AF0EE000AB0EE480A5B
:1025E00007F0DEF9D8ED020A40EE808A98ED030A82
:1025F00040EE088A98ED040A38EE800A02E00000F6
:102600008404002084EDCE0AF0EE080AB0EE480AF9
:1026100007F0C6F9D9ED010A60EE208AF0EE000A53
:10262000B0EE480A07F0BCF9D9ED020A40EE808A04
:1026300099ED030A40EE088A99ED040A38EE800A03
:1026400084EDCF0AF0EE080AB0EE480A07F0A8F9C8
:10265000DAED010A60EE208AF0EE000AB0EE480AD8
:1026600007F09EF9DAED020A40EE808A9AED030A3D
:1026700040EE088A9AED040A38EE800A84EDD00A0A
:10268000F0EE080AB0EE480A07F08AF9DBED010A1D
:1026900060EE208AF0EE000AB0EE480A07F080F9FA
:1026A000DBED020A40EE808A9BED030A40EE088AC9
:1026B0009BED040A38EE800A84EDD10AF0EE080A98
:1026C000B0EE480A07F06CF905F1A800D0ED010A58
:1026D00060EE208AF0EE000AB0EE480A07F060F9DA
:1026E00005F1A800D0ED020A40EE808A90ED030AC1
:1026F00040EE088A90ED040A38EE800A84EDD20A92
:10270000F0EE080AB0EE480A07F04AF905F1C000F9
:10271000D0ED010A60EE208AF0EE000AB0EE480A21
:1027200007F03EF905F1C000D0ED020A40EE808AC4
:1027300090ED030A40EE088A90ED040A38EE800A14
:1027400084EDD30AF0EE080AB0EE480A07F028F943
:1027500005F1D800D0ED010A60EE208AF0EE000A03
:10276000B0EE480A07F01CF905F1D800D0ED020AD6
:1027700040EE808A90ED030A40EE088A90ED040A4C
:1027800038EE800A84EDD40AF0EE080AB0EE480A6A
:1027900007F006F905F1F000D0ED010A60EE208A9D
:1027A000F0EE000AB0EE480A07F0FAF805F1F00082
:1027B000D0ED020A40EE808A90ED030A40EE088ACE
:1027C00090ED040A38EE800A84EDD50AF0EE080A8E
:1027D000B0EE480A07F0E4F805F58470D0ED010A80
:1027E00060EE208AF0EE000AB0EE480A07F0D8F852
:1027F00005F58470D0ED020A40EE808A90ED030A60
:1028000040EE088A90ED040A38EE800A84EDD60A7C
:10281000BDEC028BBDE8F09F70B52DED048BB7EEDB
:10282000000AB0EE008A017E00294FD080ED870AB1
:1028300080ED880A80ED898A80ED8A0A80ED8C0A15
:1028400080ED8B0A80ED8D8A80ED8E0A80EDF70A8F
:1028500080EDF80A80EDF98A80EDFA0A80EDFC0A35
:1028600080EDFB0A80EDFD8A80EDFE0AD0ED610A65
:1028700090ED670A90ED621AD0ED681AD54960EEC6
:10288000200A21EE811A90F8082289789FEDD29AC9
:10289000DFEDD28AD24CD34BD34EB2EE047AFAEEAD
:1028A000047A9FEDD26AD24DDFEDD26A012A00D0C0
:1028B00089B380ED559A90ED890A20EE800AD0ED1B
:1028C0008A0A01EE200A80ED530AC3E0F0EE080AFE
:1028D000C0ED870A80ED880AC0ED890A80ED8A0A7A
:1028E00080ED8C0A80ED8B0A80ED8D8A80ED8E8ADA
:1028F000C0EDF70A80EDF80AF1EE040AC0EDF90A1E
:10290000C0EDFA0A80EDFC0A80EDFB0A80EDFD8A3D
:1029100080EDFE8AAAE7FFE790ED5B2A20EE020A2F
:1029200080ED6D0A90ED5C2A61EE823AC0ED6E3A60
:10293000D0ED691A90ED5D2A21EE822A22EE084A36
:1029400080ED6F4A90ED6A2AD0ED5E2A62EE222A6F
:1029500062EEA84AC0ED704AD0ED6B2A90ED5F3A66
:1029600090ED875A22EE833A23EE055A80ED715A94
:1029700090ED6C3AD0ED605AD0ED889A63EE255A0E
:1029800065EEA95AC0ED725A30EE230A30EE040A01
:1029900030EE240A30EE050A30EE250A80ED550AA5
:1029A00010EE102AA24202DD80ED557A05E010EE0D
:1029B000102A9A4201D9C0ED557A90ED890A60EE4D
:1029C000800AC0ED730A90ED8A0A21EE000A80EDBC
:1029D000740A90ED631A21EE811AD0ED8C1A21EE63
:1029E000211A80ED751AD0ED641A62EE211A90ED6D
:1029F0008B2A61EE821AC0ED761A90ED652A22EEDE
:102A0000822AD0ED8D2A22EE222A80ED772AD0ED7F
:102A1000662A63EE222A90ED8E3A62EE832AC0ED9A
:102A2000782A30EE800A30EE010A30EE210A30EECC
:102A3000020A30EE220A80ED530A10EE102AB2424A
:102A400002DD80ED536A05E010EE102AAA4201D99A
:102A5000C0ED536AD0EDD10A90EDD70A90EDD21AAD
:102A6000D0EDD81A90F8C82360EE200A21EE811A22
:102A7000012A00D071B180EDC59A90EDF90A20EEDF
:102A8000800AD0EDFA0A01EE200A80EDC30ABDECFF
:102A9000048B70BD90EDCB2A20EE020A80EDDD0A9A
:102AA00090EDCC2A61EE823AC0EDDE3AD0EDD91A33
:102AB00090EDCD2A21EE822A62EE084AC0EDDF4A6F
:102AC00090EDDA2AD0EDCE2A62EE222A22EEA84A32
:102AD00080EDE04AD0EDDB2A90EDCF3A90EDF75A49
:102AE00022EE833A23EE055A80EDE15A90EDDC3A6E
:102AF000D0EDD05A90EDF88A63EE255A65EE885AEB
:102B0000C0EDE25A30EE230A30EE240A30EE040A19
:102B100030EE050A30EE250A80EDC50A10EE101AD7
:102B2000A14202DD80EDC57A05E010EE101A99424F
:102B300001D9C0EDC57A90EDF90A60EE800AC0EDCA
:102B4000E30A90EDFA0A21EE000A80EDE40A90ED26
:102B5000D31A21EE811AD0EDFC1A61EE211AC0EDD4
:102B6000E51A90EDD41A22EE011A90EDFB2A21EE1F
:102B7000022A80EDE62A90EDD51A22EE811AD0EDD8
:102B8000FD2A61EE222AC0EDE72A90EDD61A23EE47
:102B9000011A90EDFE3A21EE031A80EDE81A30EEAC
:102BA000800A30EE210A30EE020A30EE220A30EEC0
:102BB000010A80EDC30A10EE101AB14202DD80ED69
:102BC000C36A64E710EE101AA942FAD9C0EDC36ACD
:102BD0005DE7000058000020000000009A99993F2E
:102BE00000002041000020C10000C8420000C8428F
:102BF0000000C8C20000C8C2404990F80822897885
:102C00009FED3F1A012A00D021B19FED3E0A80EDD1
:102C1000440A01E080ED441A90ED440AD0ED4B0ADD
:102C200030EE600A80ED670A90ED450AD0ED4D0A5E
:102C300030EE600A80ED680A90ED0F0AD0ED490A87
:102C400070EE600AC0ED690AD0ED0E0AD0ED101AE0
:102C500070EEE10AC0ED6A0AD0ED401A90ED462A06
:102C600071EEC21AC0ED6B1AD0ED411A90ED472AF1
:102C700071EEC21AC0ED6C1A90F8C823012A00D078
:102C800021B1DFED211AC0EDB41A03E0DFED1F1A08
:102C9000C0EDB41AD0EDB41A90EDBB2A71EEC21A91
:102CA000C0EDD71AD0EDB51A90EDBD2A71EEC21A5B
:102CB000C0EDD81AD0EDB91A30EE610A80EDD90A0C
:102CC000C0EDDA0A90EDB00AD0EDB60A30EE600A37
:102CD00080EDDB0A90EDB10AD0EDB70A30EE600A64
:102CE00080EDDC0A017C002907D180ED691A80EDB6
:102CF000D91A80ED6A1A80EDDA1A70475800002060
:102D0000000000008FC2F53C000000809A9999BD38
:102D100070B504462DED068BAF4E96ED090AF1EE27
:102D2000400AC4ED460A96ED0A1AF1EE411AC4EDC6
:102D3000471A94ED2E0A9FEDA92A32EE400A30EE92
:102D4000600A84ED4B0AD4ED4C2A70EE622ADFED66
:102D5000A48A82EEA83A84ED4D3A84ED4C0AC4ED83
:102D6000B60AC4EDB71AD4ED9E1A71EEC21A71EE0E
:102D7000E00AC4EDBB0AD4EDBC1A70EEE11A81EE94
:102D8000A82A84EDBD2AC4EDBC0A60789FED959A0F
:102D900002287DD0DFED940AC4ED190A9348D4EDE2
:102DA000340AD0ED061A70EEE10A70EEC11ADFEDBA
:102DB000900A61EEA01AC4ED251AD0ED0F1A94ED19
:102DC000A42A71EEC21A31EEC11A61EE200AC4EDD6
:102DD000950AFDF7CDFAD4ED260A94ED4D1A94ED3F
:102DE000258A60EE810A00EE808A94ED4B0AFDF799
:102DF000FBFAD4ED270A00EE808A84ED4A8A94ED2E
:102E0000920AD4ED110A00EEA80A84ED900A30EE81
:102E1000480AD4ED190A00EE808A84ED928A94ED76
:102E2000BB0AFDF7A5FAD4ED960A94EDBD1A94ED10
:102E3000958A60EE810A00EE808A94EDBB0AFDF768
:102E4000D3FAD4ED970A00EE808A84EDBA8A04F5AD
:102E50008065D4ED110A95ED020A00EEA80A85ED11
:102E6000000A30EE480AD4ED190A00EE808A85ED9A
:102E7000028A96ED090AB1EE400AFDF7B5FAD6EDE1
:102E80000E0AF1EE609A9FED5B8A40EE489A00E0F0
:102E90005FE096ED090AB1EE400AFDF769FA69EEC6
:102EA000809A96ED090AB1EE400AFDF761FA96EDB7
:102EB0000FAA00EE48AA96ED090AB1EE400AFDF706
:102EC00093FA4AEE009AC4ED119AD4ED921A95ED58
:102ED000020A494831EEC01A80ED051AD6ED0C2AD7
:102EE0009FED462AC2EE820A30EEC11AB0EEC11A38
:102EF00080ED061A11EE100A4149884213DDF4EE06
:102F0000C01AF1EE10FA03DD30EE801A84ED921A49
:102F100094ED921AB4EEC01AF1EE10FA03D231EE2B
:102F2000600A85ED020A94ED920AD5ED020A30EEB0
:102F3000200AF6EE000A20EE201A84ED101A207CFA
:102F4000012809D084ED499A84EDB99ABDEC068B2D
:102F500070BD84ED199A21E794ED0E0AB5EEC00A12
:102F6000F1EE10FA01D1E07F48B1B5EEC00AF1EE02
:102F700010FAEBD084ED499A84EDB99AE6E794ED26
:102F8000490A01EE280A84ED490AD4EDB90A41EE56
:102F9000280AC4EDB90A10EE100A1A49DFED1A1A10
:102FA0001A4A9FED1B1A884202DDC4ED491A05E05A
:102FB00010EE100A904201D984ED491A10EE900AE1
:102FC000884202DDC4EDB91AC0E710EE900A9042C3
:102FD000BCD984EDB91AB9E7A80E0020DC0FC93FAF
:102FE0006F12033B00000000CDCC4C3FFC080020DA
:102FF000EC51B83D39B41C41580000209A99D93F92
:10300000CDCCCC3E3333333F3333333F333333BF15
:10301000333333BF10B504462DED028B207E0128DB
:1030200013D09FED2F0A84ED7C0A84EDEC0A94ED19
:103030007C0AD4ED8F0A01210020B4EEE00AF1EE03
:1030400010FA39D284F8081238E094ED4B0AFDF7F3
:10305000CBF9D4ED810A20EE200AD4ED260A80EEC9
:10306000208A94ED4B0AFDF783F9D4ED800A10EE27
:10307000808A84ED7D8ADFED1B8A38EE280A84ED94
:103080007C0A94EDBB0AFDF7AFF9D4EDF10A20EE0E
:10309000200AD4ED960A80EE208A94EDBB0AFDF753
:1030A00067F9D4EDF00A00EE808A84EDED8A38EEFF
:1030B000280A84EDEC0ABAE784F8080294EDEC0AD9
:1030C000D4EDFF0AB4EEE00AF1EE10FA04D284F86F
:1030D000C813BDEC028B10BD84F8C803F9E70000EB
:1030E00000001643B21D894210B504462DED068B33
:1030F00094ED530AD4ED540AB1EE400A30EE600A62
:1031000084ED510AD4EDC30A94EDC41A70EEC10ADD
:10311000C4EDC10A10EE100AB0499FEDB11AB14AD0
:10312000DFEDB11A884202DD84ED511A05E010EEA0
:10313000100A904201D9C4ED511A10EE900A9FED89
:10314000AB8B884202DD84EDC11A05E010EE900AD7
:10315000904201D9C4EDC11AB4F85800D4ED570A11
:1031600000EE100AB8EE400A20EE800AD4ED180AEC
:1031700020EE20AA84ED1CAA94ED550AB4F856005E
:10318000F1EE400A00EE100AB8EE400A20EE800A86
:1031900084ED1E0A10EE100A08F05CFF41EC100BE3
:1031A00006F0F4FB53EC182B51EC100B08F028FC44
:1031B00041EC190B1AEE100A08F04CFF53EC192BD6
:1031C00008F0EDFB10D2A06F08F044FF41EC100BAB
:1031D00006F0DCFB53EC182B51EC100B08F010FC44
:1031E00008F040F820672AE0A06F08F033FF41ECB8
:1031F000100B06F0CBFB53EC182B51EC100B08F026
:1032000027FC41EC190B206F08F024FF53EC192B1D
:1032100008F0CAFA13D2A06F08F01CFF41EC100BA3
:1032200006F0B4FBB0EE481AF0EE681A53EC112B1E
:1032300051EC100B08F00CFC08F014F82067543423
:1032400094ED070AD4ED090A30EE200ABDEEC00A5B
:1032500010EE100AE080A088D4EDB20A00EE100A49
:10326000B8EE400A20EE800AD4ED030A20EE20AA30
:1032700084ED08AA6088D4EDB00A00EE100AB8EE1A
:10328000400A20EE800A84ED0A0A543C10EE100A2F
:1032900008F0E0FE41EC100B06F078FB53EC182B25
:1032A00051EC100B08F0ACFB41EC190B1AEE100AB4
:1032B00008F0D0FE53EC192B08F071FB10D2E06F30
:1032C00008F0C8FE41EC100B06F060FB53EC182B25
:1032D00051EC100B08F094FB07F0C4FF606726E088
:1032E000E06F08F0B7FE41EC100B06F04FFB53EC1B
:1032F000182B51EC100B08F0ABFB41EC190B606F75
:1033000008F0A8FE53EC192B08F04EFA0FD2E06F2C
:1033100008F0A0FE41EC100B06F038FB53EC182B24
:1033200051EC100B08F094FB07F09CFF606794EDE4
:103330001D0AD4ED1F0A30EE200ABDEEC00A10EEC1
:10334000100A00B2A4F85C00B4F95A104FF4FA6203
:103350005342914202DDA4F85A2003E0994201DA77
:10336000A4F85A30904202DDA4F85C2003E09842B1
:1033700001DAA4F85C3094ED590AD4ED580A30EE25
:10338000200A84ED520AD4EDC90A94EDC81A70EEF1
:10339000810AC4EDC20A10EE100A164A9FED161AF1
:1033A0001649DFED171A904202DD84ED521A05E04E
:1033B00010EE100A884201D9C4ED521A10EE900A9C
:1033C000904204DD84EDC21ABDEC068B10BD10EEF8
:1033D000900A8842F8D9C4EDC21AF5E70000C84245
:1033E0000000C8420000C8C20000C8C200000000BF
:1033F00000409F4000007A4300007A4300007AC3F7
:1034000000007AC32DE9F05F04462DED068BA0780D
:10341000DFEDFE9A4FF004099FEDFD8A9FEDFD9AC6
:103420004FF00208DFEDFC8ADFF8F0A3FC4E012725
:103430000025002807D0012855D150467179808A8F
:1034400000296FD0C7E0BAF9060010B3404200EE81
:10345000100AB0EE691AB8EEC00A60EE010A94EDE7
:103460000E0A06F0BDFF84ED0E0AD4ED1A0AB4EE82
:10347000E00AF1EE10FA02DDC4ED0E0A13E0F1EEFF
:10348000600AB4EEE00AF1EE10FA0CD2C4ED0E0AB6
:1034900009E094ED0E0AB0EE691AF0EE680A06F043
:1034A0009FFF84ED0E0A9AF80B0001281FD02571AA
:1034B00065702179642004291CD05434A080C82070
:1034C000608094ED140AB0EE481AF0EE490A06F056
:1034D00087FF84ED840AB0EE481ADFEDD20A06F0C9
:1034E0007FFF84ED140ABDEC068BBDE8F09F84F8E5
:1034F0000490DEE79AF80A10012914D0657094ED63
:10350000290AB0EE481ADFEDC80A06F069FF84ED1B
:10351000990AB0EE481ADFEDC50A06F061FF84EDA6
:10352000290AE0E74BE084F8018096ED040AC04ADE
:1035300010EE101A914203DC717A09B97772357076
:1035400010EE101ABB4A914203DB317809B937708B
:103550007572717ADFEDB80A19B130EE200A86ED86
:10356000040A317829B196ED040A30EE600A86ED3E
:10357000040AD6ED040AB14A10EE901A914204DD15
:10358000A4F85800A4F8560004E0A4F858009620C7
:10359000A4F8560094ED290AB0EE481A06F020FF70
:1035A00084ED990AD6ED040ADFEDA51AB0EE481AAB
:1035B00070EEE10A06F014FF84ED290A93E7010694
:1035C00009D594F8841021B1002184F88410777112
:1035D00004E00121F9E7010600D47571810602D5E6
:1035E00084F8018004E0C00601D5677000E06570D2
:1035F00060789FED94AA20B101282BD0022852D0E8
:1036000053E003F047FA10B903F0EEF9B8B103F054
:1036100041FA834603F0E8F9ABEB000000EE100A34
:10362000D4ED1A0AB0EE691AB8EEC00A60EE200AAC
:1036300094ED0E0A06F0D4FE84ED0E0A35E094ED0A
:103640000E0AB0EE4A1AF0EE680A06F0C9FE84EDE2
:103650000E0A2AE003F090F910B903F0A9F9B8B105
:1036600003F08AF9834603F0A3F9ABEB000000EE08
:10367000100AF0EE000AB0EE691AB8EEC00A60EE69
:10368000200A94ED0E0A06F0ABFE84ED0E0A0CE063
:1036900094ED0E0AB0EE4A1AF0EE680A06F0A0FEAB
:1036A00084ED0E0A01E0C4ED0E8ABAF81400C0F3EE
:1036B0000031C0F340321144C0F38032114401297B
:1036C00001D1B2790AB1F9B11FE0C10407D520795F
:1036D000022802D084F8048012E0257110E08104F1
:1036E00007D52079032802D00320207108E0257136
:1036F00006E0400404D52079042803D084F804901F
:10370000B77102E02571FBE7B571BAF814008105C5
:1037100001D5F179C1B3800500D4F57194F8C803DF
:1037200094F80812C842DFED489A08D1207960B3B6
:10373000022858D0032867D004282CD003E0C4ED19
:10374000299AC4ED999A94ED0E0AB5EEC00AF1EEED
:1037500010FA01D0E7772584B5EEC00AF1EE10FA31
:103760007FF4DFAEE07F0128FAD1208C401C80B2CC
:103770002084B0F5FA6F7FF6D4AEE5772584C4EDEA
:10378000498AC4EDB98AAEE600E019E0207900B1BB
:103790002571F771C2E79FED2D9A94ED290AB0EEDD
:1037A000481AF0EE490A06F01BFE84ED990AB0EEC5
:1037B000481AF0EE490A06F013FE84ED290AC2E722
:1037C00094ED290AB0EE481AF0EE490A06F008FE18
:1037D00084ED990AB0EE481AF0EE490A06F000FEB0
:1037E00084ED290AAFE794ED290AB0EE481AF0EE0D
:1037F000690A06F0F5FD84ED990AB0EE481AF0EE7C
:10380000690A06F0EDFD23E025E00000A69B443B9D
:103810006F12033AEC51383E000000005A0A0020B3
:1038200058000020C520303E3333B33E703D8A3E01
:103830005C8F423ECDCCCC3E3480B7391F856B3E89
:103840000AD7A33D0AD7A33B1F856B3E0AD7A33EE9
:1038500084ED290A77E79FED0A9A94ED290AB0EEE4
:10386000481AF0EE490A06F0BBFD84ED990AB0EE65
:10387000481AF0EE490A06F0B3FD84ED290A62E722
:10388000B81E053E2DED028B01213D4A3D4803F057
:103890007FFE3B4A3B4818320121503003F078FE4E
:1038A000374A384830320121A03003F071FE344AE3
:1038B000344848320121F03003F06AFE304A0121D9
:1038C0006032314803F064FE2D4A2F4878320121DE
:1038D000503003F05DFE2A4A2B4890320121A0307F
:1038E00003F056FE264A2848A8320121F03003F0A2
:1038F0004FFE9FED268ADFED268A2248F0EE480A29
:10390000B0EE680A283803F013F91E48F0EE480AB2
:10391000B0EE680A143803F00BF906F019FE1D48E2
:10392000FEF74EFB1B4805F0F5F91A48FEF75EFC62
:103930001848FFF7EDF91748FFF764FD154805F043
:1039400095FC1448FFF766FB02F032FC1148FFF7C4
:1039500053F91048FEF760FF0E4803F052FE0D4881
:1039600003F0DCF80B48FEF7DFF90A48FFF7BCFB71
:10397000084805F081FB022006F0D5FDCFE70000E6
:10398000A4050020280C0020680D00206F12033BC6
:10399000000000007400002090F820100022502940
:1039A0000AD9818C491C89B28184C82903D9022192
:1039B00080F82610828470478284704710B51446C0
:1039C0000068A26890423ED1887984F82000487847
:1039D0000A7840EA0220E082C8788A7840EA022029
:1039E000A0824879097940EA012060822046FFF7E9
:1039F000D3FFFA20607000202070207C012812D0B4
:103A0000A068B0F5017F06D940F2FF116160401F48
:103A10004000207307E04FF40071884203D96160D1
:103A2000401E40002073A2784FF4005104F11000B2
:103A300052B1012A0FD0022A05D19FED0A0A06F0E1
:103A4000A9FB84ED070A10BDB7EE000A06F01CFBC7
:103A500084ED070A10BD9FED040A06F09BFB84ED80
:103A6000070A10BD000010422CA09941014800F047
:103A700001BE0000001A0020014800F0FBBD00005C
:103A800040190020014800F0F5BD0000601A002038
:103A9000014800F0EFBD0000A01900200168CAB283
:103AA000103A1823B2FBF3F2064B9B5CC3656FF32D
:103AB0000901032A02D9091D816500E08165806D35
:103AC00070470000E8C7000810B5014600208A6A68
:103AD0008B694FF0C074002B0ED0B3F5005F1AD085
:103AE00062B3012A2AD0022A28D0032A03D1C96A44
:103AF000C90100D5012010BD1AB1012A06D0022A41
:103B0000F9D1C96AC901F6D5012010BDC96AA1421F
:103B1000FBD1012010BD52B1012A0AD0022A06D0E1
:103B2000032AF7D1C96AA142F4D1012010BD0120B6
:103B300010BDC96AC901FBD5012010BD012010BD0F
:103B400070B52DED048BB0EE608AF0EE418AB0EED8
:103B5000619AF0EE429A401EC5B210209FED2A1ADB
:103B6000DFED2A0A06F07CFC294C20800C209FED1A
:103B7000291ADFED290AB0EE480A06F071FC6080D0
:103B80009FED278A0C209FED251AF0EE480AB0EE33
:103B9000680A06F065FCE0800C20B1EE041AF0EE35
:103BA000480AB0EE490A06F05BFC20810C209FED2C
:103BB0001D1ADFED1D0AB0EE690A06F051FCA08067
:103BC0001A49228805EBC50501EB8501130A01F8A6
:103BD0001C3F4A70628813098B701301E28843EA24
:103BE0001223CB700A71228913094B71120142EA28
:103BF00010228A71C8711C39BDEC048B0846BDE8DF
:103C0000704004F0F1BF0000DC0F4940DC0F49C0F8
:103C10004C0A002000004842000048C20000FA435D
:103C20000000000000003442000034C2A807002059
:103C3000401EC0B200EBC0020848FF2100EB82002A
:103C400000F81C1F41708170C17001714171817158
:103C5000FC21C1711C3804F0C7BF0000A807002078
:103C600070B505460C46287800F00F006070A1681A
:103C7000884243D1287800096082A878697840EAB0
:103C80000120A082E8782979000140EA1110E08241
:103C90002979687901F00F0140EA012020830C2185
:103CA000DFED170A9FED170A06F0F5FE84ED090A0D
:103CB000A08A1021DFED140A9FED140A06F0EBFE36
:103CC00084ED070AE08A0C21DFED110A9FED110A4D
:103CD00006F0E1FE84ED080AA87900EE100AB8EEBD
:103CE000400A84ED0A0AE87900EE100AB8EE400AAC
:103CF00084ED0B0AFA20A0700020207070BD000037
:103D000000003442000034C2DC0F4940DC0F49C0DF
:103D100000004842000048C2704770B5054600F0F8
:103D2000F9FE044600F0F6FE001BA842FAD370BD6F
:103D300070B5054602F040F9044602F03DF9001B5B
:103D4000A842FAD370BD06F003FC012006F0EBFB9D
:103D5000F9E7202000F0E2BD72B6FEE7F6EE000AB9
:103D600060EE200A10EE100A0649A1EB600000EE9A
:103D7000100A20EE801AF7EE080A41EE400A20EE03
:103D8000800A7047865A375F90F82020012A07D0B2
:103D9000022A05D0416A41F4802141620120704726
:103DA000006842690A43426100207047F0B590F80C
:103DB00020500468A468012D07D0022D05D0416A67
:103DC00041F4802141620120F0BD04F0806504F0DF
:103DD0000066354301D1E5005BD5C4F30164022CD4
:103DE00005D9416A41F4000141620120F0BD01257D
:103DF000A5401D608B684FF4C0759BB1CE6805EB84
:103E0000041733434E6843EAC6030668F3514FF480
:103E1000C273076803EB04130E69FE50097D012984
:103E200009D00DE00E88CB6805EB041743EA465332
:103E30000668F351EBE70168CE5846F48076CE5021
:103E40001179D379567941EA036193791B0443EAE6
:103E5000062319434FF4C676036806EB04169951FE
:103E60001178D37841EA0361937852781B0443EACE
:103E7000022211434FF4C473026803EB0413D150C0
:103E8000006805EB0411425842F001024250002044
:103E9000F0BD416A41F4001141620120F0BD000013
:103EA00010B590F82020012A07D0022A05D0416AD7
:103EB00041F480214162012010BD3C4800F50070B2
:103EC000026842F001020260026822F47C52026041
:103ED00002684B6A42EA032202600A7D02F01F0375
:103EE00001229A40C3699343C361A0F50070CB6976
:103EF000B3B9D0F80C329343C0F80C328C894B68BC
:103F000064F31F434C6900EBC404C4F840320C89CD
:103F10000B6864F31F434C6900EBC404C4F84432DB
:103F2000CB69012B16D1D0F80C321343C0F80C32F8
:103F30000C884B6864F31F434C6900EBC404C4F85D
:103F400040320C89CB6864F31F434C6900EBC40416
:103F5000C4F844328B697BB1D0F804321343C0F803
:103F600004320B6973B1D0F814321343C0F8143221
:103F7000096A01290CD010E0D0F804329343C0F84C
:103F80000432EEE7D0F814329343C0F81432EFE76E
:103F9000D0F81C121143C0F81C12D0F8001221F006
:103FA0000101C0F80012002010BD000000640040B4
:103FB000704730B590F82040012C07D0022C05D076
:103FC000416A41F480214162012030BD21B1046881
:103FD0002469A4075FD003E00468E468A40754D010
:103FE0004FF4D874056804EB01142D5905F004054D
:103FF0009560F5B305682D59ED08556005682C5995
:1040000004F00204D4604FF4DA74056804EB011480
:104010002D5905F00F05156105682D59C5F30725C4
:10402000956105682C59240C54614FF4DC720468C6
:1040300002EB0112A4581C700468A458240A5C7096
:104040000468A458240C9C700468A258120EDA70FC
:104050004FF4DE72046802EB0112A4581C7104686C
:10406000A458240A5C710468A458240C9C71046848
:1040700000E016E0A258120EDA71B9B100680169C9
:1040800041F020010161002030BD416A41F400117E
:104090004162012030BD416A41F4001141620120BA
:1040A00030BD05682D596D0D1560A7E70068C16822
:1040B00041F02001C160E6E72DE9F05F05460024EC
:1040C00028684669D0F804908768D0F80CA0D0F82A
:1040D00010B0D0F81880F10748D0F90714D00121AA
:1040E0008160B80703D5284600F064FA0CE0780731
:1040F00002D54FF4006407E0380702D54FF480542E
:1041000002E0284600F055FAF80516D529684FF464
:1041100080708860B80503D5284600F04DFA0CE0A1
:10412000780502D544F4005407E0380502D544F47C
:10413000804402E0284600F03EFAF80316D52968CC
:104140004FF480308860B80303D5284600F036FA73
:104150000CE0780302D544F4004407E0380302D5AC
:1041600044F4803402E0284600F027FA300707D5EF
:104170005FEACA6004D544F4007429681020C8605E
:1041800070074FF0080707D55FEA0A7004D5286862
:10419000C760284600F0B8F9B00706D52868C0689F
:1041A000800702D0284600F0B1F9700607D55FEA13
:1041B000CB6004D544F48064296810200861B006FF
:1041C00007D55FEA0B7004D528680761284600F020
:1041D000AFF9F00606D528680069800702D02846A6
:1041E00000F0A8F9B00308D55FEAC96005D52968D1
:1041F00010204860284600F0AFF9F00307D55FEAC9
:10420000097004D528684760284600F0D8F93004C2
:1042100046D55FEA497040D5F00504D55FEAC8701D
:1042200001D044F00104B00504D55FEA887001D5DF
:1042300044F00204700504D55FEA487001D544F0EB
:104240000404300529D518F0700F26D008F070004E
:10425000402815D006DC102809D020280AD03028A4
:1042600016D10AE050280ED0602811D10EE044F09B
:1042700008040DE044F010040AE044F0200407E0D4
:1042800044F0400404E044F0800401E044F480740D
:104290002868816921F070018161296804204860E3
:1042A000002C05D0686A204368622846FFF780FE2C
:1042B000BDE8F09F70B50446002C03D094F82000B0
:1042C00010B104E0012070BD204600F09DF8206888
:1042D000016841F00101016000F01CFC0546052663
:1042E0000CE000F017FC401B0A2807D9606A40F474
:1042F0000030606284F82060012070BD2068406852
:10430000C007EED02068016821F00201016000F0D2
:1043100001FC05460CE000F0FDFB401B0A2807D914
:10432000606A40F40030606284F82060012070BD53
:10433000206840688007EED4207E01283FD02068A6
:10434000016821F080010160607E01283DD0206875
:10435000016821F040010160A07E01283BD0206867
:10436000016821F020010160E07E012839D0206839
:10437000016841F010010160207F012837D02068DA
:10438000016821F008010160607F012835D02068B4
:10439000016821F004010160D4E902010843D4E975
:1043A0000412114308436168491E08432168C8612B
:1043B00000206062012084F82000002070BD206889
:1043C000016841F080010160BEE72068016841F0AA
:1043D00040010160C0E72068016841F020010160F0
:1043E000C2E72068016821F010010160C4E720687D
:1043F000016841F008010160C6E72068016841F0EA
:1044000004010160C8E700002DE9F04186B00446D0
:10441000142101A8FCF700FE364B374ADFF8D080A4
:1044200018682168344C03260227401C10320025EE
:104430004FF0090C414527D11860012807D11068B9
:1044400040F000701060106800F00070009020686C
:1044500040F008002060206800F0080000900196FD
:10446000029703950496CDF814C001A9234800F0E3
:1044700061FA00220521142000F0EAFB142000F06C
:10448000D9FB06B0BDE8F081DFF874804145F8D172
:10449000116841F080611160116801F08061009144
:1044A0001860012807D1106840F000701060106893
:1044B00000F000700090206840F00200206020684A
:1044C00000F002000090602001900297039504968E
:1044D000CDF814C001A90B4800F02CFA00220521E8
:1044E000412000F0B5FB412000F0A4FBC9E700002B
:1044F00000640040840A002030380240000C024072
:1045000000680040000402407047000070B5074B8F
:104510000021A3F120041D46221DFFF74AFD294674
:10452000201DBDE87040FDF70FBA000064110020A7
:104530007047000070B5074B0121A3F120041D4610
:10454000221DFFF736FD2946201DBDE87040FDF70E
:1045500085BA00008C110020704770B5044694F8AD
:104560002000012805D0606A40F40020606201202C
:1045700070BD022084F820002068016821F001014C
:10458000016000F0C7FA05460DE000F0C3FA401BD9
:104590000A2808D9606A40F400306062052084F877
:1045A0002000012070BD20684068C007EDD1606226
:1045B00070BD7047704770477047704770477047CD
:1045C0002DE9F0410446A76D00F0A4FA054694F8E1
:1045D00035000026022806D08020606584F834600B
:1045E0000120BDE8F0812068016821F0160101601A
:1045F0002068416921F080014161206C08B9A06CFC
:1046000020B12068016821F008010160206801687C
:1046100021F0010101600BE000F07CFA401B05284D
:1046200006D9202034342062032060702670D8E739
:1046300020680068C007EFD134343F2094F8281078
:104640008840B8600120607026700020C9E790F8AB
:104650003510022903D080214165012070470521D2
:1046600080F835100068016821F001010160002028
:10467000704700002DE9F84304464FF00009CDF8DB
:1046800000906F484FF416510068B0FBF1F7A56D2C
:104690002E6894F85C00082202FA00F1314210D032
:1046A0002068016849070CD5016821F00401016008
:1046B00094F85C0002FA00F1A960606D40F001001E
:1046C000606594F85C104FF0010808FA01F0304280
:1046D00008D021684969090604D5A860606D40F0DA
:1046E0000200606594F85C1004208840304208D0D5
:1046F00021680968890704D5A860606D40F004004E
:10470000606594F85C1010208840304220D0216809
:10471000096809071CD5A8602068016849030CD501
:104720000068000304D4216C91B1204688470FE053
:10473000A16C69B1204688470AE00168C90503D425
:10474000016821F008010160216C09B12046884709
:1047500094F85C102020884030424CD021680968D1
:10476000C90648D5A86094F8350005280BD0206804
:104770000168490330D50068000328D4616C51B347
:104780002046884737E02068016821F01601016063
:104790002068416921F080014161206C08B9A06C5A
:1047A00020B12068016821F00801016094F85C10D4
:1047B0003F208840A86084F8358084F83490216DCB
:1047C00000293BD001B02046BDE8F0430847E16B2B
:1047D00009B1204688470EE00168C90507D4016881
:1047E00021F01001016084F8358084F83490E16B89
:1047F00009B120468847606D00281FD0606DC00752
:1048000014D0052084F835002068016821F00101EA
:1048100001600098401C0090B84203D820680068EE
:10482000C007F6D184F8358084F83490E16C002913
:1048300004D001B02046BDE8F0430847BDE8F88346
:10484000880A00202DE9F041044600F063F905468E
:104850005CB1022084F83500002684F834602068BA
:10486000016821F0010101600DE00120BDE8F08147
:1048700000F050F9401B052805D920206065032071
:1048800084F83500F2E720680068C007F0D121689D
:104890000A6820480240D4E901031843D4E90335EB
:1048A0002B43184363691843A3691843E36918430A
:1048B000236A18431043626A042A03D1D4E90B2304
:1048C0001A43104308602068406920F00700656AB9
:1048D00029460543012704290DD1A06A0543E06A52
:1048E00048B12046FFF7F0F828B14020606584F811
:1048F00035700120BAE7206845612046FFF7CEF801
:1049000094F85C203F2191408160666584F83570A1
:104910000020ABE73F8010F07047000010B504495D
:104920000A68024202D00860FFF7F6FF10BD0000DF
:10493000143C01402DE9F84F0022DFF89C914FF024
:10494000010803274FF00F0C09F1040AA9F1040B29
:1049500008FA02F50B682B40AB426ED10C7904F0DB
:104960000304012C01D0022C15D18668540007FAEB
:1049700004FE26EA0E06D1F80CE00EFA04FE4EEA1A
:10498000060EC0F808E04468AC430D79C5F3001585
:104990009540254345600C79E443A40708D0C568D9
:1049A000540007FA04F6B5438E68A6402E43C6604D
:1049B0000C7904F00304022C11D1D40800EB840616
:1049C000356A5407E40E0CFA04FE25EA0E05D1F808
:1049D00010E00EFA04FE4EEA050EC6F820E0056867
:1049E000540007FA04F6B5430E7906F00306A64014
:1049F0002E4306604C6814F4403F67D0374C25685E
:104A000045F480452560246804F480440094344CC7
:104A100022F003052E19D6F8085894074FEA147EA1
:104A20000CFA0EF4A5432F4CA04201D1002424E03F
:104A30002D4CA04202D101241FE047E02B4CA042A4
:104A400001D1022419E02A4CA04201D1032414E030
:104A5000284CA04201D104240FE0274CA04201D1F0
:104A600005240AE0254CA04201D1062405E0244C8F
:104A7000A04201D1072400E0082404FA0EF42C43DC
:104A8000C6F80848D9F800409C434D68ED0200D5AF
:104A90001C43C9F80040DAF800409C434D68AD0261
:104AA00000D51C43CAF80040DBF800409C434D6829
:104AB000AD0300D51C43CBF80040074D083D2C68E2
:104AC0009C434E68F60300D51C432C60521C102AF0
:104AD000FFF43EAFBDE8F88F083C01404438024087
:104AE0000030014000000240000402400008024083
:104AF000000C024000100240001402400018024066
:104B0000001C0240002A01D08161704709048161C4
:104B1000704700000148806870470000F40A0020D8
:104B2000024881680278114481607047F40A0020CD
:104B300010B50B48016841F400710160016841F44F
:104B400080610160016841F480710160032000F020
:104B50009FF80F2000F006F800F050F8002010BD7C
:104B6000003C024030B587B0054600241F4801686C
:104B700041F001010160006800F00100009001A90E
:104B800002A800F045F90598B0B100F065F94000C1
:104B90001749B0FBF1F1491E16484FF08042026000
:104BA00040F2E732C260416004618460846100F0D9
:104BB00033FD04461CB115E000F04EF9E8E70D485E
:104BC00000F064FD04466CB91C2000F033F8102D91
:104BD00007D2002229461C2000F03AF8064805605A
:104BE00000E0012407B0204630BD000040380240FC
:104BF00040420F00C01A0020F80A002082B00C4882
:104C0000016841F480410160006800F48040019037
:104C10000748001F016841F080510160006800F002
:104C20008050019000220F21901E02B000F010B8B9
:104C300044380240002809DB00F01F0201219140A6
:104C40004009800000F1E020C0F80011704700002A
:104C5000F0B40D460D4B1B68C3F30223C3F10704E8
:104C6000042C00D90424191D072901D2002300E0D7
:104C7000DB1E012606FA04F1491E294099409E4098
:104C8000761E16403143F0BC04F0F7BB0CED00E09B
:104C900000F00701054A10684FF6FF03184040EA8C
:104CA0000120034908431060704700000CED00E04C
:104CB0000000FA05704700002DE9F04704460D4654
:104CC000002C13D0DFF82891D9F80000EFB200F0E3
:104CD0000700A8420CD289F80070D9F8000000F053
:104CE0000700A84204D00120BDE8F0870120FBE7BF
:104CF0002068404E810712D5400703D5306840F444
:104D0000E05030602078000703D5306840F4604000
:104D100030603068A16820F0F000084330602078EF
:104D2000C00731D0334960680839012808D002280B
:104D30000BD0032809D0096889070BD40120D3E7D9
:104D40000968890306D40120CEE70968890101D4E6
:104D50000120C9E7316821F0030101433160FFF709
:104D6000D9FE804641F2883A07E0FFF7D3FEA0EB78
:104D70000800504501D90320B6E73068616800F0AB
:104D80000C00B0EB810FF0D1D9F8000000F0070063
:104D9000A84209D989F80070D9F8000000F007008E
:104DA000A84201D001209FE72078400705D5306850
:104DB000E16820F4E050084330602078000706D511
:104DC0003068216920F4604040EAC100306000F0A2
:104DD00063F83168084AC1F30311515CC8400749C0
:104DE000086007480068FFF7BDFE00207CE7000070
:104DF000003C024008380240D0C70008880A002062
:104E0000F80A002001490120C864704700004742A9
:104E10000F2202600B4A136803F003034360136818
:104E200003F0F0038360136803F4E053C360126877
:104E300002F46042D20802610348006800F00700F3
:104E40000860704708380240003C02400148006892
:104E500070470000880A002000B5FFF7F7FF0449FB
:104E60000968044AC1F38221515CC84000BD0000BA
:104E700008380240E0C7000800B5FFF7E7FF044923
:104E80000968044AC1F34231515CC84000BD0000CA
:104E900008380240E0C7000810B51748006810F055
:104EA0000C01164816D0164B042912D0082911D12E
:104EB000114C241F216801F03F02216849020AD5E4
:104EC0002068C0F38810A0FB03010023FBF7D1FF8B
:104ED00009E0184610BD21680023C1F38811A1FB29
:104EE0000001FBF7C6FF2168C1F30141491C4900DD
:104EF000B0FBF1F010BD0000083802400024F400BF
:104F0000001BB70010B505480068000605D5FFF77F
:104F1000D1FE02498020891C087010BD0C38024067
:104F20002DE9F84F0446002C13D02078DFF8A08339
:104F3000C007A8F1040556D008F104000168C1F3C8
:104F4000810101290CD00068C0F38100022803D040
:104F50000DE00120BDE8F88FD8F80000400206D52A
:104F6000286880033FD5606870BB0120F2E7606865
:104F7000B0F5803F10D0B0F5A02F12D0286820F4F3
:104F800080302860286820F4802028606068E0B1C4
:104F9000FFF7C0FD064614E0286840F48030286022
:104FA000F4E7286840F480202860286840F48030C6
:104FB0002860EBE7FFF7AEFD801B642801D90320D2
:104FC000C8E728688003F5D50DE0FFF7A3FD064686
:104FD00006E0FFF79FFD801B642801D90320B9E795
:104FE00028688003F5D42078BA4F80074FF0000975
:104FF00048D5B748001D016811F00C0F08D00068B3
:10500000C0F38100022813D1D8F8000040020FD469
:105010002868800704D5E068012801D0012099E7BD
:105020002868216920F0F80040EAC100286029E0E2
:10503000E068B8B101203860FFF76CFD064606E075
:10504000FFF768FD801B022801D9032082E728684A
:105050008007F5D52868216920F0F80040EAC100F2
:1050600028600FE0C7F80090FFF754FD064606E001
:10507000FFF750FD801B022801D903206AE728684A
:105080008007F5D42078000729D5DFF844A292489C
:1050900061690AF1700A89B101210160FFF73AFDE7
:1050A000064606E0FFF736FD801B022801D90320E3
:1050B00050E7DAF800008007F4D510E0C0F800905F
:1050C000FFF728FD064606E0FFF724FD801B0228B7
:1050D00001D903203EE7DAF800008007F4D42078F5
:1050E000400778D54FF0000A79483C300068C0008E
:1050F0000BD477483C30016841F080510160006872
:1051000000F0805000904FF0010ADFF8D0B1DBF8DA
:105110000000C00514D4DBF8000040F48070CBF828
:105120000000FFF7F7FC064606E0FFF7F3FC801BE4
:10513000022801D903200DE7DBF80000C005F4D5F3
:10514000634EA0686C3601280FD0052812D0306855
:1051500020F001003060306820F004003060A0686A
:10516000F8B1FFF7D7FC834617E0306840F0010044
:105170003060F4E7306840F004003060306840F0A0
:1051800001003060EBE7FFF7C5FCA0EB0B0141F23B
:105190008830814201D90320DCE630688007F2D5EF
:1051A00010E0FFF7B7FC834609E0FFF7B3FCA0EB84
:1051B0000B0141F28830814201D90320CAE63068F0
:1051C0008007F2D4BAF1010F05D141483C300168A3
:1051D00021F080510160A069C0B33D49091D0968F3
:1051E0004FF0FF36C1F38101022946D0022805D0D5
:1051F000C7F86090FFF78EFC04463AE0C7F860906D
:10520000FFF788FC814607E0FFF784FCA0EB09006C
:10521000022801D903209DE628688001F4D4D4E94E
:1052200007010843616AA26A890106EB520241EA5A
:105230000241084394F82C1040EA0160C8F80000CD
:1052400001203866FFF766FC044607E03DE0FFF703
:1052500061FC001B022801D903207BE6286880013D
:10526000F5D532E0FFF756FC001B022801D90320D8
:1052700070E628688001F5D427E0012823D0D8F80B
:105280000000E26900F4800191421AD1226A00F024
:105290003F01914215D147F6C071626A0140B1EBFE
:1052A000821F0ED1A26A00F4403106EB5202B1EB2C
:1052B000024F06D194F82C1000F07060B0EB016F33
:1052C00003D0012046E6012044E6002042E600002B
:1052D0000438024000004742800E47420070004000
:1052E00070B50446002C09D0606A002540B12561E4
:1052F0006561A56294F8510040B10CE0012070BDD9
:105300006068B0F5827FF4D0E561F2E784F8505030
:10531000204600F045F8022084F85100206801681A
:1053200021F040010160A088218900F4827001F41D
:1053300004410843A18901F400610843217C01F084
:1053400002010843217D01F001010843218B01F492
:1053500000710843217F01F03801084394F82010C0
:1053600001F080010843218D01F4005108432168B8
:105370000860A069042101EA104094F8241001F0AB
:1053800010010843216848602068C16921F4006168
:10539000C1616565012084F85100002070BD0000E6
:1053A000F0B587B00446142102A8FBF735FE1C496E
:1053B0002068884232D100271A48016841F48051A0
:1053C0000160006800F480500190164814380168AC
:1053D00041F002010160016801F0020101910168E0
:1053E00041F001010160006800F001000190182007
:1053F000029002260396049703250595052406943A
:1054000002A90948FFF796FA8020029003960497B4
:105410000595069402A90548FFF78CFA07B0F0BD80
:1054200000300140443802400004024000000240C5
:105430002DE9F84F04460A9E8A4693461F460125E9
:105440004FF0000894F8500001280ED0012084F895
:105450005000FFF75FFB814694F851006168012816
:105460000DD0B1F5827F07D102E00220BDE8F88FB0
:10547000A16809B9042802D04FF00208C3E0BAF1CC
:10548000000F28D0BBF1000F25D0380023D094F8AE
:105490005100042802D0052084F8510000206065E6
:1054A000C4F838B0E787A787C4F830A0E786A78696
:1054B0002064606420680168490603D4016841F0F3
:1054C00040010160E068B0F5006F07D06068E8B3A4
:1054D000012F48D07DE04FF0010894E0606808B1EA
:1054E000012F39D1206B21680088C860206B801C97
:1054F0002063E08E401EE0862EE0206881688907E8
:105500000DD5E18E59B1012D09D1216B0988C160FA
:10551000206B801C2063E08E401EE0860025206802
:105520008168C9070BD0E18F49B1C068A16B0880C1
:10553000A06B801CA063E08F401EE0870125FFF771
:10554000E9FAA0EB0900B04206D300E00BE0701CC2
:1055500002D04FF0030856E0E08E0028CDD1E08F56
:105560000028CAD13BE0206B216800780873206BCB
:10557000401C2063E08E401EE0862AE0206881689F
:1055800089070DD5E18E59B1012D09D1216B09781B
:105590000173206B401C2063E08E401EE0860025D6
:1055A00020688168C9070BD0E18F49B1C068A16B41
:1055B0000870A06B401CA063E08F401EE0870125AF
:1055C000FFF7A8FAA0EB0900B04201D3701C11D17B
:1055D00086B1E08E0028D1D1E08F0028CED14A4696
:1055E0003146204602F0D0FE38B14FF001082020AD
:1055F000606508E04FF0030805E0A06818B920686E
:10560000C1688068009001205034607000202070D4
:1056100040462BE77047704710B50446002C03D076
:1056200094F83D0010B107E0012010BD002084F87F
:105630003C00204600F016F8022084F83D00211DB1
:10564000206802F0EDFF01203D3460726070A070B0
:10565000E07020716071A071E071207220700020F4
:1056600010BD000008B500680649884208D1064808
:10567000016841F400310160006800F400300090DE
:1056800008BD0000004401404438024090F83D103D
:10569000012901D001207047022180F83D100168E6
:1056A000CA6842F00102CA6000681449884214D0F6
:1056B000B0F1804F11D0124988420ED01149884272
:1056C0000BD01149884208D01049884205D01049B2
:1056D000884202D00F49884209D1816801F0070150
:1056E000062908D0016841F00101016003E001686A
:1056F00041F00101016000207047000000000140FE
:105700000004004000080040000C0040000401407C
:105710000040014000180040704770B50446206802
:1057200001694FF00005C943890716D4C168C94310
:10573000890712D4E91E0161012020772068806961
:10574000800703D02046FFF7E7FF05E0204600F082
:10575000C5F8204600F055F9257720680169C9434E
:10576000490718D4C168C943490714D46FF004012C
:105770000161022020772068806910F4407F03D007
:105780002046FFF7C9FF05E0204600F0A7F82046B5
:1057900000F037F9257720680169C943090717D454
:1057A000C168C943090713D46FF0080101610420DF
:1057B00020772068C069800703D02046FFF7ACFF40
:1057C00005E0204600F08AF8204600F01AF9257717
:1057D00020680169C943C90618D4C168C943C9060C
:1057E00014D46FF010010161082020772068C0698F
:1057F00010F4407F03D02046FFF78EFF05E02046DF
:1058000000F06CF8204600F0FCF82577206801696C
:10581000C943C90708D1C168C943C90704D1891E52
:105820000161204600F05CF920680169C94309065E
:1058300009D4C168C943090605D46FF0800101612C
:105840002046FFF7E7FE20680169C943490609D4ED
:10585000C168C943490605D46FF040010161204683
:1058600000F045F920680169C94389060BD4C16875
:10587000C943890607D46FF0200101612046BDE8C5
:105880007040FFF7C8BE70BD10B586B00446142145
:1058900001A8FBF7C1FB0E492068884215D10D48CD
:1058A000016841F020010160006800F020000090D4
:1058B00040200190022002900121039104900320D6
:1058C000059001A90448FFF735F806B010BD0000A7
:1058D000004401403038024000140240704770B567
:1058E00004460D46002694F83C0001280FD0012004
:1058F00084F83C006AB1042A1FD0082A32D00C2A4E
:1059000044D00126002084F83C00304670BD0220BF
:1059100070BD2946206802F0F7FE2068816941F0D9
:10592000080181612068816921F00401816120689A
:1059300081692A6911438161E4E72946206802F000
:1059400017FF2068816941F40061816120688169E5
:1059500021F480618161206881692A6941EA02211C
:105960008161CFE72946206802F03CFF2068C169C9
:1059700041F00801C1612068C16921F00401C161E1
:105980002068C1692A691143C161BBE729462068C3
:1059900002F060FF2068C16941F40061C1612068C4
:1059A000C16921F48061C1612068C1692A6941EA45
:1059B0000221C161A6E710B50446002C03D094F87B
:1059C0003D0010B107E0012010BD002084F83C002C
:1059D000204600F015F8022084F83D00211D2068C3
:1059E00002F01EFE01203D3460726070A070E07015
:1059F00020716071A071E07120722070002010BDD4
:105A00007047704710B50446002909D004290AD010
:105A100008290BD094F8410001280AD0012010BDBC
:105A200094F83E00F8E794F83F00F5E794F840005A
:105A3000F2E70220A9B3042937D0082938D084F826
:105A400041000122206802F051FE1E4920681E4AD2
:105A5000884201D0904203D1436C43F40043436435
:105A60002068884213D0B0F1804F10D01749884287
:105A70000DD0174988420AD01649884207D0904273
:105A800005D01549884202D01449884213D1816853
:105A900001F00701062912D0016841F001010160FF
:105AA0000DE0FFE784F83E00CBE784F83F00C8E74D
:105AB00084F84000C5E7016841F001010160002061
:105AC00010BD00000000014000040140000400403F
:105AD00000080040000C0040004001400018004059
